:040179004100000041
:10000300759850758920758780758DF3758BF3D23C
:06001300ACD2AFD28E2238
:030023000200B226
:1000B200C0E0C083C082C0D075D000C007900000ED
:1000C200E0FF04F074022FF582E43400F583E59931
:1000D200F0900000E0C394084002E4F0C298C29994
:0B00E200D007D0D0D082D083D0E03215
:0B016E00EF1FAC0670011E4C70F62263
:080019007FC37E8ADEFEDFFCDE
:0100210022BC
:0200ED00AD075D
:1000EF00C2B6C2B5E4FB74807E00A803088006CEBA
:1000FF00A2E713CE13D8F8FFEDF582EF558224FF58
:0F010F0092B4D2B6C2B60BEBB408DBD2B5C2B510
:01011E0022BE
:10014C00AA07AF051200EDAF027480A80708800261
:10015C00C313D8FCF4F5807F647E0012016E7580A9
:02016C00FF2270
:10011F00120003E4900001F0900001E0FF2402F5CB
:10012F0082E43400F583E0FD3395E0FC12014C903E
:0D013F000001E004F0E0C3940840DD80D62C
:03000000020026D5
:0C002600787FE4F6D8FD75810702006DBC
:1000320002011FE493A3F8E493A34003F68001F2C4
:1000420008DFF48029E493A3F85407240CC8C333CF
:10005200C4540F4420C8834004F456800146F6DF9E
:10006200E4800B0102040810204080900179E47EB4
:10007200019360BCA3FF543F30E509541FFEE49393
:10008200A360010ECF54C025E060A840B8E493A35A
:10009200FAE493A3F8E493A3C8C582C8CAC583CA85
:1000A200F0A3C8C582C8CAC583CADFE9DEE780BE3D
:01017D000081
:00000001FF
